{
  "_format": "hh-sol-artifact-1",
  "contractName": "chai",
  "sourceName": "contracts/Chai.sol",
  "abi": [
    {
      "inputs": [],
      "stateMutability": "nonpayable",
      "type": "constructor"
    },
    {
      "inputs": [
        {
          "internalType": "string",
          "name": "_name",
          "type": "string"
        },
        {
          "internalType": "string",
          "name": "_message",
          "type": "string"
        }
      ],
      "name": "buyChai",
      "outputs": [],
      "stateMutability": "payable",
      "type": "function"
    },
    {
      "inputs": [],
      "name": "getMemos",
      "outputs": [
        {
          "components": [
            {
              "internalType": "string",
              "name": "name",
              "type": "string"
            },
            {
              "internalType": "string",
              "name": "message",
              "type": "string"
            },
            {
              "internalType": "uint256",
              "name": "timestamp",
              "type": "uint256"
            },
            {
              "internalType": "address",
              "name": "from",
              "type": "address"
            }
          ],
          "internalType": "struct chai.Memo[]",
          "name": "",
          "type": "tuple[]"
        }
      ],
      "stateMutability": "view",
      "type": "function"
    },
    {
      "inputs": [
        {
          "internalType": "uint256",
          "name": "",
          "type": "uint256"
        }
      ],
      "name": "memos",
      "outputs": [
        {
          "internalType": "string",
          "name": "name",
          "type": "string"
        },
        {
          "internalType": "string",
          "name": "message",
          "type": "string"
        },
        {
          "internalType": "uint256",
          "name": "timestamp",
          "type": "uint256"
        },
        {
          "internalType": "address",
          "name": "from",
          "type": "address"
        }
      ],
      "stateMutability": "view",
      "type": "function"
    },
    {
      "inputs": [],
      "name": "owner",
      "outputs": [
        {
          "internalType": "address payable",
          "name": "",
          "type": "address"
        }
      ],
      "stateMutability": "view",
      "type": "function"
    }
  ],
  "bytecode": "0x608060405234801561001057600080fd5b50336000806101000a81548173ffffffffffffffffffffffffffffffffffffffff021916908373ffffffffffffffffffffffffffffffffffffffff160217905550610ec5806100606000396000f3fe60806040526004361061003f5760003560e01c80636a13d85914610044578063865c5172146100605780638da5cb5b1461008b578063e8dfdf04146100b6575b600080fd5b61005e60048036038101906100599190610756565b6100f6565b005b34801561006c57600080fd5b50610075610285565b60405161008291906109d3565b60405180910390f35b34801561009757600080fd5b506100a0610468565b6040516100ad9190610a16565b60405180910390f35b3480156100c257600080fd5b506100dd60048036038101906100d89190610a5d565b61048c565b6040516100ed9493929190610af2565b60405180910390f35b60003411610139576040517f08c379a000000000000000000000000000000000000000000000000000000000815260040161013090610b91565b60405180910390fd5b60008054906101000a900473ffffffffffffffffffffffffffffffffffffffff1673ffffffffffffffffffffffffffffffffffffffff166108fc349081150290604051600060405180830381858888f1935050505015801561019f573d6000803e3d6000fd5b50600160405180608001604052808481526020018381526020014281526020013373ffffffffffffffffffffffffffffffffffffffff16815250908060018154018082558091505060019003906000526020600020906004020160009091909190915060008201518160000190816102179190610dbd565b50602082015181600101908161022d9190610dbd565b506040820151816002015560608201518160030160006101000a81548173ffffffffffffffffffffffffffffffffffffffff021916908373ffffffffffffffffffffffffffffffffffffffff16021790555050505050565b60606001805480602002602001604051908101604052809291908181526020016000905b8282101561045f57838290600052602060002090600402016040518060800160405290816000820180546102dc90610be0565b80601f016020809104026020016040519081016040528092919081815260200182805461030890610be0565b80156103555780601f1061032a57610100808354040283529160200191610355565b820191906000526020600020905b81548152906001019060200180831161033857829003601f168201915b5050505050815260200160018201805461036e90610be0565b80601f016020809104026020016040519081016040528092919081815260200182805461039a90610be0565b80156103e75780601f106103bc576101008083540402835291602001916103e7565b820191906000526020600020905b8154815290600101906020018083116103ca57829003601f168201915b50505050508152602001600282015481526020016003820160009054906101000a900473ffffffffffffffffffffffffffffffffffffffff1673ffffffffffffffffffffffffffffffffffffffff1673ffffffffffffffffffffffffffffffffffffffff1681525050815260200190600101906102a9565b50505050905090565b60008054906101000a900473ffffffffffffffffffffffffffffffffffffffff1681565b6001818154811061049c57600080fd5b90600052602060002090600402016000915090508060000180546104bf90610be0565b80601f01602080910402602001604051908101604052809291908181526020018280546104eb90610be0565b80156105385780601f1061050d57610100808354040283529160200191610538565b820191906000526020600020905b81548152906001019060200180831161051b57829003601f168201915b50505050509080600101805461054d90610be0565b80601f016020809104026020016040519081016040528092919081815260200182805461057990610be0565b80156105c65780601f1061059b576101008083540402835291602001916105c6565b820191906000526020600020905b8154815290600101906020018083116105a957829003601f168201915b5050505050908060020154908060030160009054906101000a900473ffffffffffffffffffffffffffffffffffffffff16905084565b6000604051905090565b600080fd5b600080fd5b600080fd5b600080fd5b6000601f19601f8301169050919050565b7f4e487b7100000000000000000000000000000000000000000000000000000000600052604160045260246000fd5b6106638261061a565b810181811067ffffffffffffffff821117156106825761068161062b565b5b80604052505050565b60006106956105fc565b90506106a1828261065a565b919050565b600067ffffffffffffffff8211156106c1576106c061062b565b5b6106ca8261061a565b9050602081019050919050565b82818337600083830152505050565b60006106f96106f4846106a6565b61068b565b90508281526020810184848401111561071557610714610615565b5b6107208482856106d7565b509392505050565b600082601f83011261073d5761073c610610565b5b813561074d8482602086016106e6565b91505092915050565b6000806040838503121561076d5761076c610606565b5b600083013567ffffffffffffffff81111561078b5761078a61060b565b5b61079785828601610728565b925050602083013567ffffffffffffffff8111156107b8576107b761060b565b5b6107c485828601610728565b9150509250929050565b600081519050919050565b600082825260208201905092915050565b6000819050602082019050919050565b600081519050919050565b600082825260208201905092915050565b60005b83811015610834578082015181840152602081019050610819565b60008484015250505050565b600061084b826107fa565b6108558185610805565b9350610865818560208601610816565b61086e8161061a565b840191505092915050565b6000819050919050565b61088c81610879565b82525050565b600073ffffffffffffffffffffffffffffffffffffffff82169050919050565b60006108bd82610892565b9050919050565b6108cd816108b2565b82525050565b600060808301600083015184820360008601526108f08282610840565b9150506020830151848203602086015261090a8282610840565b915050604083015161091f6040860182610883565b50606083015161093260608601826108c4565b508091505092915050565b600061094983836108d3565b905092915050565b6000602082019050919050565b6000610969826107ce565b61097381856107d9565b935083602082028501610985856107ea565b8060005b858110156109c157848403895281516109a2858261093d565b94506109ad83610951565b925060208a01995050600181019050610989565b50829750879550505050505092915050565b600060208201905081810360008301526109ed818461095e565b905092915050565b6000610a0082610892565b9050919050565b610a10816109f5565b82525050565b6000602082019050610a2b6000830184610a07565b92915050565b610a3a81610879565b8114610a4557600080fd5b50565b600081359050610a5781610a31565b92915050565b600060208284031215610a7357610a72610606565b5b6000610a8184828501610a48565b91505092915050565b600082825260208201905092915050565b6000610aa6826107fa565b610ab08185610a8a565b9350610ac0818560208601610816565b610ac98161061a565b840191505092915050565b610add81610879565b82525050565b610aec816108b2565b82525050565b60006080820190508181036000830152610b0c8187610a9b565b90508181036020830152610b208186610a9b565b9050610b2f6040830185610ad4565b610b3c6060830184610ae3565b95945050505050565b7f506179206d6f7265207468616e207a65726f0000000000000000000000000000600082015250565b6000610b7b601283610a8a565b9150610b8682610b45565b602082019050919050565b60006020820190508181036000830152610baa81610b6e565b9050919050565b7f4e487b7100000000000000000000000000000000000000000000000000000000600052602260045260246000fd5b60006002820490506001821680610bf857607f821691505b602082108103610c0b57610c0a610bb1565b5b50919050565b60008190508160005260206000209050919050565b60006020601f8301049050919050565b600082821b905092915050565b600060088302610c737fffffffffffffffffffffffffffffffffffffffffffffffffffffffffffffffff82610c36565b610c7d8683610c36565b95508019841693508086168417925050509392505050565b6000819050919050565b6000610cba610cb5610cb084610879565b610c95565b610879565b9050919050565b6000819050919050565b610cd483610c9f565b610ce8610ce082610cc1565b848454610c43565b825550505050565b600090565b610cfd610cf0565b610d08818484610ccb565b505050565b5b81811015610d2c57610d21600082610cf5565b600181019050610d0e565b5050565b601f821115610d7157610d4281610c11565b610d4b84610c26565b81016020851015610d5a578190505b610d6e610d6685610c26565b830182610d0d565b50505b505050565b600082821c905092915050565b6000610d9460001984600802610d76565b1980831691505092915050565b6000610dad8383610d83565b9150826002028217905092915050565b610dc6826107fa565b67ffffffffffffffff811115610ddf57610dde61062b565b5b610de98254610be0565b610df4828285610d30565b600060209050601f831160018114610e275760008415610e15578287015190505b610e1f8582610da1565b865550610e87565b601f198416610e3586610c11565b60005b82811015610e5d57848901518255600182019150602085019450602081019050610e38565b86831015610e7a5784890151610e76601f891682610d83565b8355505b6001600288020188555050505b50505050505056fea264697066735822122055e68f8de95bd243ed052661f43828a8330f101c047501c309dd30cd0172599264736f6c63430008110033",
  "linkReferences": {},
  "deployedLinkReferences": {}
}